:020000040800F2
:1000000000C00020D11C0108D11C0008D31C00082E
:10001000D51C0008D71C0008D91C000800000000EF
:10002000000000000000000000000000DB1C0008D1
:10003000DD1C000800000000DF1C0008E11C0008B7
:10004000191D0108191D0108191D0108191D0108B4
:10005000191D0108191D0108191D0108191D0108A4
:10006000191D0108191D0108191D0108191D010894
:10007000191D0108191D0108191D0108191D010884
:10008000191D0108191D0108191D0108191D010874
:10009000191D0108191D0108191D0108191D010864
:1000A000191D0108191D0108191D0108191D010854
:1000B000191D0108191D0108191D0108191D010844
:1000C000191D0108191D0108191D0108191D010834
:1000D000191D0108E51C0008191D0108191D01085A
:1000E000191D0108191D0108191D0108191D010814
:1000F000191D0108191D0108191D0108191D010804
:10010000191D0108191D0108191D0108191D0108F3
:10011000191D0108191D0108191D0108191D0108E3
:10012000191D0108191D0108191D0108191D0108D3
:1001300000000000000000000000000000000000BF
:1001400000000000000000000000000000000000AF
:10015000000000000000000000000000000000009F
:10016000000000000000000000000000000000008F
:10017000000000000000000000000000000000007F
:10018000000000000000000000000000000000006F
:10019000000000000000000000000000000000005F
:1001A000000000000000000000000000000000004F
:1001B000000000000000000000000000000000003F
:1001C000000000000000000000000000000000002F
:1001D000000000000000000000000000000000001F
:0401E0005FF8E0F1F3
:1001E80010B5054C237833B9044B13B10448AFF369
:1001F80000800123237010BD48010020000000008A
:100208000032010808B5034B1BB103490348AFF39B
:10021800008008BD000000004C01002000320108E9
:10022800034613F8012B002AFBD1181A013870472E
:1002380053B94AB9002908BF00281CBF4FF0FF3145
:100248004FF0FF3000F07AB9ADF1080C6DE904CE3B
:1002580000F006F8DDF804E0DDE9022304B0704799
:100268002DE9F0478C460E460446089D002B50D1D8
:100278008A4217466CD9B2FA82FEBEF1000F0BD043
:10028800CEF1200C01FA0EF620FA0CFC02FA0EF759
:100298004CEA060C00FA0EF43A0CBCFBF2F9BBB2BD
:1002A80002FB19CC09FB03FA4FEA144848EA0C464A
:1002B800B2450AD9F61909F1FF3180F02581B24516
:1002C80040F22281A9F102093E44A6EB0A06B6FBD8
:1002D800F2F002FB106600FB03F3A4B244EA064402
:1002E800A34209D9E41900F1FF3280F00B81A3423F
:1002F80040F2088102383C440021E41A40EA0940EF
:10030800002D62D0002324FA0EF42C606B60BDE847
:10031800F0878B4207D9002D55D0002185E8410090
:100328000846BDE8F087B3FA83F1002940F08F80D2
:10033800B34202D3824200F2FC80841A66EB0306C1
:100348000120B446002D40D085E81010BDE8F087A4
:1003580012B90127B7FBF2F7B7FA87FEBEF1000F13
:1003680035D10121F61B4FEA174C1FFA87F8B6FB67
:10037800FCF20CFB126608FB02F0230C43EA06466B
:10038800B04207D9F61902F1FF3302D2B04200F2A7
:10039800D2801A46361AB6FBFCF00CFB106608FB36
:1003A80000F8A3B243EA0644A04507D9E41900F1CE
:1003B800FF3302D2A04500F2B9801846A4EB080426
:1003C80040EA02409CE729462846BDE8F08707FA3C
:1003D8000EF7CEF1200326FA03F24FEA174CB2FBD0
:1003E800FCF11FFA87F80CFB112206FA0EF620FA28
:1003F80003F301FB08F933431E0C46EA0246B145F4
:1004080000FA0EF409D9F61901F1FF3280F08C8058
:10041800B14540F2898002393E44A6EB0906B6FB95
:10042800FCF00CFB106200FB08F99EB246EA02469B
:10043800B14507D9F61900F1FF3371D2B1456FD92B
:1004480002383E44A6EB090640EA01418FE7C1F1B4
:10045800200722FA07F88B4048EA030326FA07F434
:100468004FEA134EB4FBFEF91FFA83FC0EFB194446
:100478008E4020FA07F809FB0CFA48EA06084FEA0A
:10048800184646EA0444A24502FA01F200FA01F6C7
:1004980008D9E41809F1FF3044D2A24542D9A9F19C
:1004A80002091C44A4EB0A04B4FBFEF00EFB104442
:1004B80000FB0CFC1FFA88F848EA0444A44507D955
:1004C800E41800F1FF3E29D2A44527D902381C447C
:1004D80040EA0940A0FB0289A4EB0C0CCC45C246BB
:1004E800CE4615D312D055B1B6EB0A036CEB0E0607
:1004F80006FA07F7CB401F43CE402F606E600021FD
:10050800BDE8F0871046F7E68946DEE64645EAD2BA
:10051800B8EB020A69EB030E0138E4E77046D7E747
:1005280018468FE78146BDE7114676E702383C4416
:1005380044E7084606E7023A3E442BE7704700BF07
:1005480038B50E4B054618784FF47A73B3FBF0F3C1
:100558000B4A1068B0FBF3F000F09EF8044658B957
:100568000F2D09D8024629464FF0FF3000F054F805
:10057800044B20461D6038BD012038BD0000002016
:100588007400002004000020074A08B513680320FF
:1005980043F01003136000F02DF80020FFF7D0FFA0
:1005A80001F0F0FA002008BD00200240034A044B85
:1005B80011681B780B441360704700BFD4270020D4
:1005C80000000020014B1868704700BFD4270020A6
:1005D80038B50446FFF7F6FF0546631C1EBF044BFB
:1005E8001B78E418FFF7EEFF401B8442FAD838BDA9
:1005F80000000020074A0002D36800F4E06023F4FA
:10060800E0631B041B0C43F0BF6343F40033034354
:10061800D360704700ED00E0174B30B5DC68C4F3D9
:100628000224C4F10703251D042B28BF0423062D2B
:100638004FF0010598BF002405FA03F303F1FF33D7
:1006480088BF033C1940A14005FA04F4013C22404C
:10065800002842EA01024FEA0212AFBF00F16040EF
:10066800064B00F00F00D2B2A5BFD2B200F5614030
:100678001A5480F8002330BD00ED00E014ED00E0CE
:100688000123420900F01F0003FA00F0014B43F870
:100698002200704700E100E00138B0F1807F0AD203
:1006A800F021064B064A586082F8231000200722E2
:1006B80098601A6070470120704700BF10E000E0A2
:1006C80000ED00E090F8213010B5022B03D0042390
:1006D8008363012010BD03681A6822F00E021A60B5
:1006E8001A6822F001021A60294A934224D902F5B5
:1006F8006272934219D01432934218D01432934242
:1007080017D0143293420CBF4FF480534FF4803308
:10071800204A53600123002480F82130436B80F87D
:1007280020409BB39847204610BD0123F0E71023D3
:10073800EEE74FF48073EBE717498B4216D014317C
:100748008B4215D014318B4214D014318B4214D003
:1007580014318B4214D014318B4214D0934214BFFD
:100768004FF480334FF080730C4AD2E70123FBE744
:100778001023F9E74FF48073F6E74FF48053F3E75B
:100788004FF48033F0E74FF48013EDE7184610BDBF
:1007980080000240000402400800024000000240BD
:1007A8002DE9F74F002216466C4F6D4BDFF8B8E184
:1007B800DFF8B8C14FF001080C6808FA06F808EA33
:1007C8000404A04540F085804D68122D00F0B780E4
:1007D80000F28D80022D00F0AF8000F28180002DA4
:1007E80000F09180012D00F0A5804FF00F09FF2C3B
:1007F80093BF824606F18045083DD0F800B092BF0D
:10080800B500D0F804B0AD0009FA05F82BEA0808DD
:1008180002FA05F588BF00F1040A48EA0505CAF896
:100828000050D1F804A01AF0805F52D0BD6926F0BC
:10083800030845F00105BD61BD6908F1804805F070
:100848000105019508F5803806F0030B019D4FEA74
:100858008B0BD8F8085009FA0BF925EA0909414D1C
:10086800A84271D005F58065A8426FD005F580656E
:10087800A8426DD005F58065A8426BD005F5806566
:10088800A84269D070450CBF0525062505FA0BF569
:1008980045EA0905C8F808501D681AF4803F14BFD6
:1008A8002543A5431D605D681AF4003F14BF254326
:1008B800A5435D609D681AF4801F14BF2543A543B6
:1008C8009D60DD681AF4001F14BF2C4325EA040458
:1008D800DC600136102E7FF46DAF03B0BDE8F08FF9
:1008E800032D25D0112D80D1CA6804327DE76545D6
:1008F80009D012D8DFF878904D4504D009F5803931
:100908004D457FF472AF8A68E2B1012A0CBFC0F886
:100918001080C0F81480082267E7DFF858904D452A
:10092800F1D009F580394D45EDD0A9F58019E7E7F3
:1009380000225AE7CA6858E7CA68083255E7CA6801
:100948000C3252E7042250E700259FE701259DE776
:1009580002259BE7032599E7042597E70010024045
:100968000004014000080140001C01400000211063
:1009780000001110000031100AB10161704709042C
:10098800FBE7000003682DE9F341DB07054610D4B7
:100998002B689F075ED42B68190700F195802B6898
:1009A8005A0700F1BF80EA69002A40F02D81002033
:1009B80014E0904C636803F00C03042B07D06368C1
:1009C80003F00C03082B0CD16368DE0309D52368F8
:1009D8009C03DDD56B68002BDAD1012002B0BDE89D
:1009E800F0816B68B3F5803F10D1236843F48033FE
:1009F8002360FFF7E7FD064623689803C8D4FFF78E
:100A0800E1FD801B6428F7D90320E7E79BB9236839
:100A180023F480332360236823F480232360FFF7C3
:100A2800D1FD064623689903B2D5FFF7CBFD801B9D
:100A38006428F7D9E8E7B3F5A02F236803D143F476
:100A480080232360D1E723F480332360236823F4D1
:100A58008023CDE7674C636813F00C0F07D06368F9
:100A680003F00C03082B10D16368DA030DD4236854
:100A78009B0702D52B69012BAFD123686A6923F044
:100A8800F80343EAC203236085E72A695A4B6AB12F
:100A980001221A60FFF796FD064623689F07ECD4EB
:100AA800FFF790FD801B0228F7D9ADE71A60FFF722
:100AB80089FD0646236898077FF56DAFFFF782FD2D
:100AC800801B0228F6D99FE7AA694A4C4B4BDAB13A
:100AD80001221A60FFF776FD0646636A9B070DD56B
:100AE8004FF4FA52464B1B68B3FBF2F3019300BF75
:100AF800019B5A1E0192002BF9D150E7FFF762FDC6
:100B0800801B0228E9D97FE71A60FFF75BFD0646DC
:100B1800636A9F077FF543AFFFF754FD801B0228E8
:100B2800F6D971E7334CE369D80024D40127E36987
:100B380043F08053E361E36903F080530093009B23
:100B4800304E3368D90518D5EB68012B26D1236AB6
:100B580043F001032362FFF735FD41F288368046F2
:100B6800236A9B073FD5002F3FF41DAFE36923F0AD
:100B78008053E36117E70027E2E7336843F48073A3
:100B88003360FFF71FFD80463368DA05DCD4FFF7D2
:100B980019FDA0EB08006428F6D935E7ABB9236A3C
:100BA80041F2883823F001032362236A23F0040307
:100BB8002362FFF707FD0646236A9807D3D5FFF798
:100BC80001FD801B4045F7D91EE7052B236A03D199
:100BD80043F004032362BAE723F001032362236A84
:100BE80023F00403B6E7FFF7EDFCA0EB0800B042E2
:100BF800B6D909E700100240000042428004424290
:100C08007400002000700040224C636803F00C035D
:100C1800082B3FF4E2AE00231F4E022A33602BD18B
:100C2800FFF7D0FC0746236899011FD42B6AB3F558
:100C3800803F05D16268A96822F400320A436260E5
:100C4800696A62680B4322F47412134363600123D8
:100C58003360FFF7B7FC054623689A013FF5A7AE56
:100C6800FFF7B0FC401B0228F6D9CDE6FFF7AAFC37
:100C7800C01B0228D7D9C7E6FFF7A4FC054623689E
:100C88009B017FF594AEFFF79DFC401B0228F6D927
:100C9800BAE600BF001002406000424230B51B4B6C
:100CA80087B002AC03F1100522461868596808336A
:100CB80003C2AB421446F7D101238DF80430022356
:100CC80013498DF805304B6803F00C02042A1BD039
:100CD800082A02D00F4807B030BDC3F3834206A8E4
:100CE8000244DB0312F8102C0BD54B680A48C3F3F7
:100CF8004043504306AA134413F8143CB0FBF3F0E6
:100D0800E9E706485043E6E70348E4E718320108F4
:100D18000010024000127A00001BB70000093D00D5
:100D2800544A2DE9F0411368054603F007038B4246
:100D38000E462AD329688C0734D4CA0747D44D4AAB
:100D4800136803F007039E42C0F082802A684A4C69
:100D580012F0040F40F08780130706D563682A69EC
:100D680023F4605343EAC2036360FFF797FF6368A5
:100D7800424AC3F30313D35CD840414B18600020A8
:100D8800FFF7DEFB0020BDE8F081136823F00703BE
:100D98000B431360136803F007039942CAD001207C
:100DA800BDE8F081344B11F0040F1EBF5A6842F4BD
:100DB800E0625A60080742BF5A6842F460525A60BB
:100DC8005A68A86822F0F00202435A60B5E76A68D8
:100DD800294C012A23681CD113F4003FDFD0636833
:100DE80041F2883823F0030313436360FFF7EAFBFB
:100DF8006B680746012B14D1636803F00C03042BBE
:100E08009DD0FFF7DFFBC01B4045F5D90320BDE8A7
:100E1800F081022A02D113F0007FDFE713F0020FFE
:100E2800DCE7022B0FD1636803F00C03082B86D094
:100E3800FFF7C8FBC01B4045F5D9E7E7FFF7C2FB42
:100E4800C01B4045E2D8636813F00C0FF6D176E773
:100E5800136823F0070333431360136803F0070391
:100E68009E429CD172E76368E96823F4E0630B4310
:100E7800636071E70020024000100240A2340108BC
:100E880074000020044B054A5B68C3F30223D35C5B
:100E9800034A1068D840704700100240B234010875
:100EA80074000020044B054A5B68C3F3C223D35C7B
:100EB800034A1068D840704700100240B234010855
:100EC800740000202DE9F0410446884617461D4667
:100ED800069E2268936838EA03030CBF01230023A7
:100EE8009F4202D10020BDE8F0816B1CF2D055BBB7
:100EF80023685A6822F0E0025A606268B2F5827F7D
:100F08000AD1A268B2F5004F02D0B2F5806F03D1C2
:100F18001A6822F040021A60A26AB2F5005F09D18D
:100F28001A6822F400521204120C1A601A6842F469
:100F380000521A60012384F851300023032084F8FA
:100F48005030BDE8F081FFF73DFB801B8542C0D8DB
:100F5800CEE713B50B460092802100220446FFF726
:100F6800B1FF20B10320636D43F02003636502B035
:100F780010BD2DE9F043994690F8503085B0012B0B
:100F880004460D4616460C9F00F0EE80012380F8BB
:100F98005030FFF717FB94F851308046DBB2012B35
:100FA80061680AD0B1F5827F40F0DC80A268002A2F
:100FB80040F0D880042B40F0D580002D4ED0002E74
:100FC8004CD0B9F1000F49D094F85130A663012BE9
:100FD80004BF052384F851300023636523646364E8
:100FE8002368A4F83E90A4F836901A68A4F83C90B8
:100FF800500658BF1A68256358BF42F04002A4F84B
:10100800349058BF1A60E268B2F5006F5DD119B12B
:10101800E28E92B2012A06D135F8022BDA60E38E0D
:10102800013B9BB2E3864FF00109E38E9BB2BBB94B
:10103800E38F9BB2A3B9CDF800803B460122022181
:101048002046FFF73FFF002835D142463946204663
:10105800FFF77FFF00287AD02023636501202BE06B
:10106800B9F1000F0FD0E38E9BB263B123689A6881
:10107800910708D54FF0000935F8022BDA60E38EA6
:10108800013B9BB2E386E38F9BB263B123689A6806
:10109800D20708D54FF00109DB6826F8023BE38F39
:1010A800013B9BB2E387781CBFD0FFF78BFAA0EB1C
:1010B80008008742B9D80320012384F8513000235F
:1010C80084F8503005B0BDE8F08319B1E28E92B2D1
:1010D800012A06D115F8012B1A73E38E013B9BB246
:1010E800E3864FF00109E38E9BB21BB9E38F9BB2F5
:1010F800002BA0D0B9F1000F0FD0E38E9BB263B1E3
:1011080023689A68910708D54FF000092A780135B5
:101118001A73E38E013B9BB2E386E38F9BB26BB1FC
:1011280023689A68D20709D54FF00109DB680136B0
:1011380006F8013CE38F013B9BB2E3877B1CD2D0CE
:10114800FFF740FAA0EB08008742CCD8B3E7A368C2
:10115800002BB1D123680390DA6803929B6803934C
:10116800039BA9E70220A7E70220ABE710B50446D6
:10117800002834D00023836290F851300BB900F076
:1011880023FD0223216884F851300B68A06823F0FE
:1011980040030B606368A2690343E0680343206966
:1011A800034360690343E0690343206A0343A06A79
:1011B800034302F4007003430B60120C636A02F0ED
:1011C80004021A43E36A4A600B61CB69002023F4E6
:1011D8000063CB610123606584F8513010BD0120A4
:1011E80010BD0368DA6822F49072DA605A6922F056
:1011F80001025A61202380F83A3070472DE9F04700
:101208000568C2682B69016923F4405313432B61B5
:101218008368EA680B43416922F4B05222F00C0259
:101228000B431343EB606B69826923F440731343E8
:101238006B61404B81469D424FF0190446D1FFF740
:1012480031FE04FB00F3D9F804604FF06408B600DF
:10125800B3FBF6F3B3FBF8F31E01FFF723FE60437D
:10126800D9F804309B00B0FBF3F7FFF71BFE60438F
:10127800D9F804309B00B0FBF3F3B3FBF8F308FB99
:1012880013731B013233B3FBF8F303F0F007FFF7D6
:1012980009FE6043D9F804209200B0FBF2FAFFF788
:1012A80001FE6043D9F804309B00B0FBF3F3B3FBB5
:1012B800F8F308FB13A31B013233B3FBF8F303F075
:1012C8000F033B433344AB60BDE8F087FFF7DAFD1B
:1012D80004FB00F3D9F804604FF06408B600B3FBD0
:1012E800F6F3B3FBF8F31E01FFF7CCFD6043D9F822
:1012F80004309B00B0FBF3F7FFF7C4FD6043D9F857
:1013080004309B00B0FBF3F3B3FBF8F308FB137353
:101318001B013233B3FBF8F303F0F007FFF7B2FD1C
:101328006043D9F804209200B0FBF2FAFFF7AAFD57
:10133800B7E700BF00380140F8B504460E46174627
:101348001D4621680B6836EA030301D10020F8BD69
:101358006B1CF7D095B923680320DA6822F4D072A1
:10136800DA605A6922F001025A61202384F8393080
:1013780084F83A30002384F83830F8BDFFF722F9B2
:10138800C01B8542DDD2E6E710B5044640B390F8AD
:10139800393003F0FF021BB980F8382000F050FC08
:1013A8002423226884F83930D368204623F4005374
:1013B800D360FFF723FF236800201A6922F49042C4
:1013C8001A615A6922F02A025A61DA6842F4005214
:1013D800DA602023E06384F8393084F83A3010BDAD
:1013E800012010BD2DE9F0411F4690F83930044620
:1013F800202B0D4690464ED1002949D0002A47D0CF
:1014080090F83830012B46D0012380F8383000237B
:10141800C363212380F83930FFF7D4F80646A4F8CF
:101428002480A4F82680E38C9BB26BB93B463246F5
:1014380040212046FFF780FFA8B9202384F8380010
:1014480084F83930BDE8F081E38C3246013B9BB229
:10145800E384A3688021B3F5805F20463B460ED124
:10146800FFF76AFF10B10320BDE8F0812B882268DE
:10147800C3F308035360236943B90235D3E7FFF781
:101488005BFF0028EFD123682A785A600135CAE744
:101498000120BDE8F0810220BDE8F08190F83A30E3
:1014A800202B20D1E9B1E2B190F83830012B1AD0C5
:1014B800C285828500232222C36380F83A2002680D
:1014C8008162D16880F8383041F48071D160516907
:1014D800184641F001015161D16841F02001D16005
:1014E80070470120704702207047704790F83A30E3
:1014F80010B5222B36D183680169B3F5805F026885
:10150800836A23D15268E9B9C2F3080223F8022B8F
:101518008362C48D013CA4B2C4858CB90368DA68BF
:1015280022F02002DA60DA6822F48072DA605A69FE
:1015380022F001025A61202380F83A3000F0D4F8F2
:10154800002010BDD2B223F8012BE1E721B9591CC4
:10155800526881621A70DCE75268591C816202F095
:101568007F02F7E7022010BD70470000036870B5DE
:101578001A6804461607D9685D6907D196065AD5D0
:101588008D0658D5BDE87040FFF7B0BF15F00105CE
:1015980002D111F4907F4ED0D30705D5CE0542BFB6
:1015A800E36B43F00103E363500704D51DB1E36B1C
:1015B80043F00203E363930704D51DB1E36B43F0E3
:1015C8000403E363160704D51DB1E36B43F0080376
:1015D800E363E36B002B66D0950604D5880602D535
:1015E8002046FFF783FF236820465D69E26B1107F9
:1015F80002D415F040051AD0FFF7F3FD23685A69A5
:10160800520610D55A69606B22F040025A6150B1F7
:10161800254B4363FFF756F8002844D0606BBDE8BC
:101628007040436B18472046FFF79EFF70BDFFF7D9
:101638009BFFE56370BD160627D50D0625D594F8E2
:101648003920212A2FD1A268B2F5805F226A17D1EA
:101658001188C1F308015960216979B902322262FF
:10166800E28C013A92B2E284EAB9DA6822F08002A6
:10167800DA60DA6842F04002DA6070BD0132EEE703
:10168800511C216212785A60EAE750060BD54A06C7
:1016980009D5DA68204622F04002DA60202384F86F
:1016A8003930FFF722FF70BDB516000808B50023D2
:1016B800406AC385C384FFF757FF08BD00F0C6BB67
:1016C800F8B50E4615460024064FAC4201DB284605
:1016D800F8BD31194FF6FF7301223846FFF782FE35
:1016E8000134F2E73430002070B5084D084C294623
:1016F80001222046FFF7D2FE29462046BDE8704069
:101708004FF47A730122FFF76DBE00BFD82700207F
:101718003430002010B590B02822002106A810F01F
:101728006FFB0021142201A810F06AFB4FF48033EC
:101738000122022407930E934FF4801306A8069201
:101748000A920F930D94FFF71DF90F234FF480624F
:1017580001930023214601A8029403930492059360
:10176800FFF7DEFA10B010BD10B5744C8EB02046ED
:1017780001F0C0FA6079A37802902079627801902C
:10178800E078217800906E4810F0FAFB607A237AAE
:10179800E279A17900906B4810F0F2FB607B237B23
:1017A800E27AA17A0090684810F0EAFB607C237C1A
:1017B800E27BA17B0090654810F0E2FB94F85500AD
:1017C80094F8543094F8532094F8521000906048DC
:1017D80010F0D6FB94F82100237D0C9094F820009B
:1017E800E27C0B90E07FA17C0A90A07F0990607F4B
:1017F8000890207F0790E07E0690A07E0590607E8E
:101808000490207E0390E07D0290A07D0190607D91
:101818000090504810F0B4FB94F8310094F824304C
:101828000C9094F8300094F823200B9094F82F0033
:1018380094F822100A9094F82E00099094F82D003C
:10184800089094F82C00079094F82B00069094F8D0
:101858002A00059094F82900049094F82800039031
:1018680094F82700029094F82600019094F8250037
:101878000090394810F084FB94F8410094F8343013
:101888000C9094F8400094F833200B9094F83F00A3
:1018980094F832100A9094F83E00099094F83D00AC
:1018A800089094F83C00079094F83B00069094F850
:1018B8003A00059094F83900049094F838000390A1
:1018C80094F83700029094F83600019094F83500A7
:1018D8000090224810F054FB94F8510094F84430DA
:1018E8000C9094F8500094F843200B9094F84F0013
:1018F80094F842100A9094F84E00099094F84D001C
:10190800089094F84C00079094F84B00069094F8CF
:101918004A00059094F84900049094F84800039010
:1019280094F84700029094F84600019094F8450016
:1019380000900B4810F024FB0EB010BD0C000020E6
:10194800C5320108F23201080D33010828330108B5
:10195800433301085E330108AF330108003401083E
:1019680051340108F0B5002402258BB08DF80350DE
:101978000194FEF709FEFFF7CDFE2146102206A8C6
:1019880010F03EFA6C4B4FF450719A696B4842F074
:1019980008029A619A69012602F008020292029AE4
:1019A8009A694FF4007742F010029A619A6902F03E
:1019B80010020392039A9A6942F004029A619A69A2
:1019C80002F004020492049A9A6942F020029A6191
:1019D8009B69224603F020030593059BFEF7CCFF85
:1019E800224680215648FEF7C7FF4FF481730693BD
:1019F800544B06A9544807930894FEF7D1FE4FF4B8
:101A0800507306A94D480693079608940995FEF762
:101A1800C7FE802306A94A480693079608940995A5
:101A2800FEF7BEFE4FF482734848494A846080E856
:101A38000C000A23C460046144618761C4610462C4
:101A480044628462C362FFF791FB4FF4E133414D76
:101A58004149284685E80A000C23AC606B61EC60BC
:101A68002C61AC61EC61FFF78FFC32463B4928469C
:101A7800FFF714FD3A4810F0F7FA324640212F4894
:101A8800FEF77AFF32464FF480712C48FEF774FF58
:101A9800324639462948FEF76FFFFFF70FFE0DF172
:101AA8000301304600F0F0FF2E49204601F010FAFD
:101AB800384600F043FA04464FF4407000F03EFA0E
:101AC800394600EB0422284810F05AFAFFF74CFE7A
:101AD80001A906A801F044FA244A42F2B32106A853
:101AE80001F0D6FA224810F0BFFA224C224E234FBA
:101AF8004FF40062214606A801F014FB051E09DD1B
:101B08002A462146304610F03BFA2A46214606A8C6
:101B180001F00BFB03223946204610F053FB002846
:101B2800E6D106A801F004FB10B9154810F09CFA9C
:101B380006A801F091FADBE700100240001001400E
:101B48000014014000001110000C0140DC270020A7
:101B5800003800403430002000380140D8270020E9
:101B68006E3201080C0000208A32010808000020AB
:101B7800A032010874300020AE320108167B01083B
:101B8800B93201080E4B82B09A6942F001029A619B
:101B98009A6902F001020092009ADA6942F08052D2
:101BA800DA61DB69074A03F080530193019B5368AC
:101BB80023F0E06343F00073536002B0704700BF46
:101BC800001002400000014010B5044686B0102203
:101BD800002102A810F014F92268174B9A4228D164
:101BE80003F5EC33DA6902A942F48042DA61DA6972
:101BF800124802F480420092009A9A6942F0080260
:101C08009A619B6903F008030193019B4FF42043F9
:101C180002930223039303230593FEF7C1FD4FF4B8
:101C280080430293002302A9044803930493FEF718
:101C3800B7FD06B010BD00BF00380040000C0140E1
:101C480010B5044686B01022002102A810F0D8F87A
:101C580022681B4B9A4230D103F558439A6902A96E
:101C680042F480429A619A69164802F480420092CE
:101C7800009A9A69002442F004029A619B6903F071
:101C880004030193019B4FF400730293022303930F
:101C980003230593FEF784FD4FF4806302A90948E6
:101CA800029303940494FEF77BFD252022462146E7
:101CB800FEF7B2FC2520FEF7E3FC06B010BD00BF1E
:101CC80000380140000801407047FEE7FEE7FEE7E4
:101CD800FEE7704770477047FEF768BC0148FFF79A
:101CE80045BC00BF3430002070B50E4615460C4682
:101CF800A31B9D4201DC284670BDAFF3008004F8A9
:101D0800010BF5E708B50A4B0246196809B90949F4
:101D180019606946186802448A4206D910F002F828
:101D28000C2303604FF0FF3008BD1A6008BD00BFE8
:101D380064010020783800204FF0FF3070474FF4DE
:101D4800005300204B607047012070470020704707
:101D58000F4B1A6842F001021A6059680D4A0A408E
:101D68005A601A6822F0847222F480321A601A6863
:101D780022F480221A605A6822F4FE025A604FF454
:101D88001F029A604FF00062034B9A60704700BFD1
:101D9800001002400000FFF800ED00E01FB500232E
:101DA8008DF80E30FF238DF80F300A230DF10E0247
:101DB80000930DF10F0101230348FFF7DAF89DF8AE
:101DC8000E0005B05DF804FBDC2700207FB50A2370
:101DD8008DF80F0000930DF1170201230DF10F018B
:101DE8000248FFF7C6F807B05DF804FBDC270020BF
:101DF800002280210148FEF7BFBD00BF001401404A
:101E0800012280210148FEF7B7BD00BF0014014040
:101E180000224FF480710148FEF7AEBD0014014066
:101E280001224FF480710148FEF7A6BD001401405D
:101E380008B5FFF7EDFF0A20FEF7CAFBFFF7F0FF32
:101E4800BDE808400A20FEF7C3BB000070B586B0A5
:101E5800FFF7EEFF00231E491A461E4800F014FC47
:101E68001D491E4800F0FEFB02AA15461C4B03F153
:101E78001006144618685968083303C4B34222464A
:101E8800F7D1184C01A9172000F0FEFD013002D14E
:101E9800204610F0E9F8019B002BF3D0124810F00F
:101EA800E3F8022329460420019300F0EDFD0130F8
:101EB80002D10E4810F0D8F801A9072000F0E4FD7F
:101EC800013002D10A4810F0CFF806B070BD00BF4B
:101ED800D51D0008A51D0008091E0008F91D0008E9
:101EE80028320108BA340108D4340108DD34010865
:101EF800F634010813B5030C0F4C8DF80430030AAF
:101F08008DF806008DF807108DF80530A3689847FE
:101F18002369984704219DF806300DEB010043F032
:101F280004038DF80630636A984763699847E36845
:101F3800984702B010BD00BF7C00002037B5030CE5
:101F48000C4C8DF80430030A8DF806008DF8053026
:101F5800A3689847236998470321636A01A89847AB
:101F6800A3699847054663699847E36898472846F0
:101F780003B030BD7C00002073B516460D46104CEA
:101F8800030C8DF80430030A8DF806008DF805302F
:101F9800A3689847236998479DF8063001A843F03D
:101FA80004038DF806300321636A984731462846B2
:101FB800636A984763699847E368984702B070BDB9
:101FC8007C00002073B516460D460D4C030C8DF8A9
:101FD8000430030A8DF806008DF80530A368984789
:101FE80023699847636A01A8032198473146284620
:101FF800236A984763699847E368984702B070BDB9
:102008007C000020F8B50026400100F501350835B0
:1020180005F580772846FFF791FF04463846FFF715
:102028008DFF00EB042000B2864201D13046F8BD96
:102038000646EFE7F8B50026400100F509350835F2
:1020480005F580772846FFF779FF04463846FFF7FD
:1020580075FF00EB042000B2864201D13046F8BD7E
:102068000646EFE72DE9F8438600F50005F5033548
:102078000835284690468946FFF760FF05F58077C2
:1020880004463846FFF75AFF00EB0424A4B220B2F6
:102098000236444400024246494600EBC600A4B258
:1020A800FFF76AFF210A2846FFF724FFE1B2384606
:1020B800BDE8F843FFF71EBF2DE9F843894690466F
:1020C8002AB38600F50005F50A3508352846FFF7D6
:1020D80035FF05F5807704463846FFF72FFF00EBFC
:1020E8000424A4B220B203364444000242464946BE
:1020F80000EBC600A4B2FFF765FF210A2846FFF7E8
:10210800F9FEE1B23846BDE8F843FFF7F3BEBDE893
:10211800F88300000728F8B505462CD84401083490
:1021280004F5805710213846FFF7E4FE3846FFF7DC
:1021380005FF06460028F9D1FF2104F52050FFF7D6
:10214800D9FE0123AB40DB430C491BB20A8804F5D6
:1021580040541A400A800A4A22F81560094A118830
:102168000B401380084B5E552046FFF7E7FE00281A
:10217800FAD10120F8BD4FF0FF30F8BD680100200A
:10218800740100206A0100206C01002007282DE955
:10219800FF410446884617461D4600F2C58001F0F7
:1021A8000F03013B0D2B00F2C280DFE803F0074F5D
:1021B8004FC0C0C04FC01E4F4FC02D4F04226946AC
:1021C8005E48FFF7FFFE9DF800309DF801109DF86E
:1021D80002200B4413449DF8032013449BB2ABBB6D
:1021E8006FF00B0004B0BDE8F08110226946544836
:1021F800FFF7E8FE002213461DF8021001320B44D7
:10220800102A9BB2F8D1EAE7042269464B48FFF747
:10221800D9FE9DF800309DF801109DF802200B446E
:1022280013449DF8032013449BB2002BD8D01022EE
:1022380069464348FFF7C6FE002213461DF8021000
:1022480001320B44102A9BB2F8D1C8E76A0771D44F
:1022580095B1B8F10D0F0FD8012342F2022203FA0B
:1022680008F313425DD140F60802134262D11B06FF
:1022780002D515F0030F5DD120466601FFF74AFF2E
:10228800083625F00F0141EA08013046FFF732FE13
:1022980005F0030106F5A230FFF72CFE6FB94FF6E3
:1022A800F071284A17887B1C9BB28B4205BF4FF4FC
:1022B80080634FF6EF771380138006F58A38390A62
:1022C8004046FFF717FEF9B208F5807006F580570B
:1022D800FFF710FE01213846FFF70CFE3846FFF7DE
:1022E8002DFE0028FAD10123A340DB4316491BB277
:1022F8000A8805F001051A40A5401543134A0D80C8
:10230800118806F540560B401380114B23F8140032
:10231800104B18553046FFF711FE0028FAD060B26E
:1023280060E715F0900FA6E74FF0FF305AE76FF01F
:10233800040057E76FF0050054E700BF003841007C
:102348000040410078000020680100206A01002058
:10235800740100206C01002007282DE9F04707468A
:102368000D46914698467DD8440108342046FFF72B
:10237800E5FD00F00300012803D06FF00400BDE87C
:10238800F08704F540563046FFF7D8FD13286DD185
:10239800294600234A1BD2B290453BD8002B69D06E
:1023A800B9F1000F6AD004F5A03A4FEA1921504656
:1023B800FFF7A0FD0AF580705FFA89F1FFF79AFD33
:1023C800B8F1100F20462AD1FFF7B8FD0107D4D580
:1023D8002946424604F59830FFF7CEFD842104F5DE
:1023E8008050FFF787FD04F580552846FFF7A6FDC6
:1023F8000028FAD1234B1B8843FA07F7FA072FD492
:1024080004F500553046FFF799FD172813D1012030
:10241800BDE8F08711F8012B13449BB2BAE7FFF728
:102428008DFD0928A9D02946042204F59030FFF72C
:10243800A3FD0421D3E72846FFF780FD030708D54D
:1024480004F520500821FFF755FD6FF00C00BDE89A
:10245800F0873046FFF772FD0028D3D16FF00300F4
:10246800BDE8F0874FF0FF30BDE8F0876FF002005D
:10247800BDE8F0876FF00B00BDE8F0876FF00A0049
:10248800BDE8F087680100202DE9F84F45010835BF
:10249800074605F5003016468846FFF74FFD8002CF
:1024A80004B2B442A8BF34460126DFF8C490BE4047
:1024B80005F5405A3846FFF7A5FD83465046FFF715
:1024C8003DFD172807D01C2805D0B0B36FF00604CF
:1024D8002046BDE8F88F5C4505DDB9F80030334289
:1024E800E8D00024F4E7224641463846FFF7BAFD13
:1024F8001E4A138890463B4113F0010F30D105F571
:10250800805520212846FFF7F5FC2846FFF716FDE1
:102518000028FAD1B8F800301E43A8F80060D7E7C1
:102528005046FFF70BFD17280BD01C2809D020B107
:102538004846FFF703FD0207C8D53846FFF7EAFD0E
:10254800C4E7BBF800303342CBD14846FFF7F6FC6E
:10255800C306E5D5102105F52050FFF7CBFCCEE7E3
:1025680005F50059DFF808B0EFE700BF6A01002061
:10257800680100202DE9F74F45010835804605F52B
:10258800083091460F46FFF7D9FC4FF0010A044680
:102598001D4A0AFA08FA05F5405B40460192FFF722
:1025A80049FD06465846FFF7C9FC1728019A08D086
:1025B8001C2806D010B94046FFF7ACFD6FF00606A0
:1025C80004E03EB9138813EA0A0FE6D0304603B098
:1025D800BDE8F08FA00200B24845A8BF4846B04207
:1025E800A8BF304606B239464046324605F5805502
:1025F800FFF762FD40212846FFF77CFC2846FFF7DD
:102608009DFC0028FAD1E1E768010020704700200E
:1026180070477047F8B505460E460446054F631BDC
:102628001BB29E4200DCF8BDBB69984704F8010B59
:10263800F5E700BF7C000020F8B505460E460446C5
:10264800054F631B1BB29E4200DCF8BD14F8010B5A
:10265800FB699847F5E700BF7C000020704770478A
:1026680070470000054B28B9054A1A6121B9054A87
:102678005A6170471861F9E7596170477C0000207A
:10268800652600081526000830B5094C2588AD05D3
:1026980000D4FEE700B90748A06101B90649E16125
:1026A80002B9064A226203B9054B636230BD00BF16
:1026B8007C000020172600081B2600081D2600089D
:1026C8004126000810B54FF4001096B0FFF736FC0D
:1026D800CE2104463648FFF70DFC062204A93548EA
:1026E800FFF770FC042234480DEB0201FFF76AFC87
:1026F800042202A93148FFF765FC042203A93048E7
:10270800FFF760FC102206A92E48FFF75BFC102299
:102718000AA92D48FFF756FC10220EA92B48FFF7EF
:1027280051FC102212A92A48FFF74CFC0021294825
:10273800FFF7E0FB2748FFF701FC3A212648FFF79F
:10274800D9FB062204A91B48FFF716FC04221A48E5
:102758000DEB0201FFF710FC042202A91748FFF74E
:102768000BFC042203A91648FFF706FC102206A951
:102778001448FFF701FC10220AA91348FFF7FCFBD5
:1027880010220EA91148FFF7F7FB102212A91048D2
:10279800FFF7F2FB220603D5FF210548FFF7AAFB46
:1027A800630603D5C5210C48FFF7A4FB16B010BD7E
:1027B80000F4410000204100003041000034410095
:1027C80000384100007041000060410000404100B5
:1027D800005041000004200000F54100F8B505460E
:1027E8000C46FFF76FFF15B9DCB90020F8BD6E1E67
:1027F80032460023073512F8011F0B445BB2102B39
:1028080002DD4FF0FF30F8BDAA42F4D1104D114F50
:10281800284616F8011F2035FFF76CFBBD42F7D19B
:10282800E2E7651E2A460023073412F8011F0B440D
:102838005BB2102BE5DC9442F7D1074C074E2046DB
:1028480015F8011F2034FFF755FBB442F7D1CCE748
:102858000800020008010200082002000821020006
:10286800F8B5C1B2050AC0F307460C48FFF742FBAA
:10287800002442F60807EDB245FA04F3DB0704D555
:10288800FF2107EB4410FFF735FB0134082CF3D187
:102898003146BDE8F8400248FFF72CBB000821008C
:1028A8000028210010B50848FFF748FB04460748F0
:1028B800FFF744FB000240EA04444FF40410FFF71A
:1028C8003DFB204310BD00BF000221000001210094
:1028D80010B50446C1B20748FFF70CFBC4F3072143
:1028E8000548FFF707FBC4F307410448BDE810405B
:1028F800FFF700BB00042100001421000024210080
:1029080010B50748FFF71AFB04460648FFF716FB01
:10291800000240EA04440448FFF710FB204310BDBE
:1029280000242100001421000004210008B54FF400
:102938004010FFF703FB00F0010008BD70B50B4E17
:102948000B4D3046FFF7FAFA044653212846FFF7A5
:10295800D1FA44F001013046C9B2FFF7CBFA284654
:10296800BDE87040FF21FFF7C5BA00BF001D300069
:1029780000F6410010B503780446022B114809D12E
:10298800FFF7DCFA40F00801C9B20E48FFF7B2FAC7
:10299800002112E0FFF7D2FA00F0F7010948FFF72B
:1029A800A9FA2378012BF3D06378002BA37814BFFE
:1029B800042106210BB941F001010348BDE810408C
:1029C800FFF798BA001D3000001C300038B50546E6
:1029D8004FF44010FFF7B2FA04460B48FFF7AEFA7F
:1029E80003074EBF022384F02003C3F340132B7068
:1029F80084F0100384F00804C3F30013C4F3C00484
:102A08006B70AC7038BD00BF001D300038B505468E
:102A18004FF44010FFF792FA04460B48FFF78EFA7E
:102A280003074EBF022384F02003C3F340132B7027
:102A380084F0020384F00404C3F34003C4F3800465
:102A48006B70AC7038BD00BF001D300010B5044677
:102A58000748FFF773FA012C0ABF40F0200100F085
:102A6800DF01C9B20248BDE81040FFF743BA00BF12
:102A7800001D300008B50348FFF760FAC0F34010A6
:102A880008BD00BF001D300038B50C460D7817286A
:102A980000F2BA80DFE800F00C2131383B414549AB
:102AA8004D5058637176848C999FA2A6AAAEB2B590
:102AB8006B0703D5FF215648FFF71CFAAC0703D56F
:102AC800C5215448FFF716FAE80701D4002038BD9D
:102AD800FF215148FFF70EFAF8E7690703D5CE2121
:102AE8004B48FFF707FAAA0703D53A214948FFF7E9
:102AF80001FAEB07EAD55321EBE74FF40010FFF793
:102B08001DFA40092070E1E7FFF7DCFDDEE720460B
:102B1800BDE838400831FFF761BEFFF7C3FE20600B
:102B2800D4E70868FFF79CFED0E70868FFF7D0FEF7
:102B3800CCE7FFF7E5FEF2E709883848090AFFF70E
:102B4800D9F921783648C5E73448FFF7F7F905463B
:102B58003348FFF7F3F900EB05202080B6E731484A
:102B6800FFF7ECF92378012B03D160F07F01C9B29C
:102B780001E000F07F012B48ACE72A48FFF7DEF9B7
:102B8800C009BFE70020284B9A780A70DA784A70A3
:102B98001A798A705A79CA709B7948710B7138BD55
:102BA8004FF40070FFF7CAF905464FF44070D0E7BC
:102BB8001C48FFF7C3F9247814B900F0FE01DAE7DE
:102BC800012C83D140F00101D1E71648FFF7B6F98F
:102BD80000F0010096E7FFF7B1FE77E70846FFF738
:102BE800C9FE73E70846FFF7F1FE6FE70846FFF7EF
:102BF8000DFF6BE72846FFF729FF67E7FFF73AFF66
:102C080080E7FFF793FE7DE74FF0FF3038BD00BF48
:102C180000F4410000F5410000F6410000C5410004
:102C280000C64100000520007C00002010B50446C5
:102C3800014606222448FFF79FF9042204F10E01F9
:102C48002248FFF799F9042204F10A012048FFF706
:102C580093F90422A11D1F48FFF78EF9102204F1F1
:102C680042011D48FFF788F9102204F132011B4880
:102C7800FFF782F9102204F112011948FFF77CF9D5
:102C8800102204F122011748FFF776F9164B94F841
:102C9800522004F166011A7094F853205A7094F87F
:102CA80054209A7094F85520DA70104A04F15603AB
:102CB80013F8010B994202F8010FF9D194F8662034
:102CC8000B4B1A7010BD00BF0020410000304100BE
:102CD80000344100003841000070410000604100AC
:102CE8000040410000504100940100208301002071
:102CF8009801002010B50446014606222448FFF733
:102D080061F9042204F10E012248FFF75BF904225D
:102D180004F10A012048FFF755F90422A11D1F48B4
:102D2800FFF750F9102204F142011D48FFF74AF954
:102D3800102204F132011B48FFF744F9102204F174
:102D480012011948FFF73EF9102204F12201174831
:102D5800FFF738F9164B04F166011A7884F8522007
:102D68005A7884F853209A78DB7884F85420114AEA
:102D780084F8553004F1560312F8010F03F8010BDB
:102D88009942F9D10C4B1B7884F8663010BD00BF0E
:102D9800002041000030410000344100003841006B
:102DA80000704100006041000040410000504100B7
:102DB80094010020830100209801002010B50446EA
:102DC800C1B20A48FFF796F8C4F307210848FFF78D
:102DD80091F8C4F307414FF48000FFF78BF8210EF8
:102DE8000448BDE81040FFF785B800BF0008400060
:102DF800000940000004400010B50848FFF79EF89D
:102E08000748FFF79BF84FF48000FFF797F8040690
:102E18000448FFF793F8204410BD00BF00084000A5
:102E2800000940000004400010B5044601780E482F
:102E3800FFF760F861884FF48400090AFFF75AF831
:102E4800A1780A48FFF756F821790948FFF752F8A0
:102E5800E1880848090AFFF74DF8A1790648BDE856
:102E68001040FFF747B800BF0004420000014200CD
:102E7800000C4200000842000009420038B5044630
:102E88000E48FFF75BF820704FF48400FFF756F800
:102E980005460B48FFF752F800EB0520608009480B
:102EA800FFF74CF820710848FFF748F8054607482F
:102EB800FFF744F800EB0520E08038BD000442002D
:102EC80000014200000C42000008420000094200D4
:102ED80010B50C46072828D8DFE800F004090D11C2
:102EE80015191D220846FFF7A1FE002010BD08464F
:102EF800FFF700FFF9E70868FFF760FFF5E7FFF75E
:102F08007BFF2060F1E70846FFF78EFFEDE70846F4
:102F1800FFF7B4FFE9E709780548FEF7EBFFE4E7B8
:102F28000348FFF70BF82070DFE74FF0FF3010BDC4
:102F3800002C210008B512B20078FFF71BFB08BD72
:102F480008B512B20078FFF79FFA08BD0229009B66
:102F580003DC194601480FF013B87047073501081C
:102F680073B5044602200E4603F048F94FF4A070EA
:102F78000EF002FF05462060BC200EF0FDFE6060EA
:102F880054200EF0F9FEA0604FF49A700EF0F4FE93
:102F9800E060284603F079F8E0680EF09FFA606870
:102FA8000CF030FDA0680DF06BF921480FF05CF8CB
:102FB8000023A0681A4619460DF066F9A1686068F2
:102FC8000DF09EF81B4960680CF036FD1A4A4FF464
:102FD80089611A480EF0D4FF174940F24942E06867
:102FE8000EF0FEFD011E02DA15480EF0C9FF0022A0
:102FF800E168A0680CF01DFDA06800210CF006FD3A
:103008002268A0680F490CF008FD0F4BA0681B68E8
:103018000E499A680CF004FD0023606800930C4A7E
:103028000C4B31460CF0FFFC012002B070BD00BF14
:10303800D3390108A40000200C350108F63901082D
:10304800193A01084B310008E4000020552F000808
:10305800492F00083D2F000810B5044640680DF0C0
:10306800A7F8A0680DF04CF9206803F013F8E068A1
:103078000EF039FA20680EF087FE60680EF084FEC4
:10308800A0680EF081FEE068BDE810400EF07CBE3E
:1030980070B505460E46144600214FF480621D485F
:1030A8000EF0AEFE6B680121D869002300781A463D
:1030B800FFF76CF86A68D2691278904200D070BD48
:1030C800042332462146FFF747F901280FD1124859
:1030D8000EF056FF68680CF0FFFC044640B96868BB
:1030E8000CF0E0FC01460D480EF04AFF204670BD8A
:1030F80024F0800313F5D24FECD04FF480620549D9
:1031080003F052FA034A214605480EF039FF4FF002
:10311800FF3070BD9901002056390108B339010804
:103128007E39010840680CF005BD40680CF008BE07
:1031380010B5044660680CF073FE10F5D14FF9D055
:1031480010BD70B50D468AB1FF268C18A54205D171
:103158000EF0BAFF0EF090FF002070BD0EF0B4FF25
:1031680090FBF6F3184405F8010BEFE7012070BD5A
:10317800012300222DE9F04FADF6140D0DF5826103
:1031880004A840F8223013F0800018BF1B2041F833
:10319800232083EA430301324340B2F5807FDBB248
:1031A800EED101230022674C13F0800018BF1B20CA
:1031B80044F82230013280EA43030A2ADBB2F3D111
:1031C8006323614E012433700023604D85F863301A
:1031D80051F8243004AAC3F1FF0352F823304FEA10
:1031E800E31E4EEA430E5FFA8EFE4FEAEE1747EAF9
:1031F8004E07FFB2F81140EA4700C0B283F06303FC
:10320800C21183EA0E0342EA40027B404340D2B235
:1032180053403355EC540134B4F5807FD8D10022A3
:103228008B6BCF6A01934B6ADFF81CE102934B6BFF
:10323800DFF82CC1DFF82C81DFF82C91DFF82CA106
:10324800DFF808B1039312F80E10940011F0800F04
:1032580014BF1B2000200B0480EA4100C0B243EADF
:1032680001234340414043EA01634FEA33614CF88C
:10327800223048F822104FEA33414FEA33234AF804
:1032880022301BF8023049F82210002B54D00DF5DB
:10329800826151F8231001984518FF2095FBF0F63C
:1032A800C6EB0626AE1B04AD55F82650029E3144E7
:1032B80091FBF0F0C0EB0020091A04A850F8211087
:1032C80009024D40002B3AD00DF58261039851F860
:1032D80023100144FF2091FBF0F0C0EB0020081AF6
:1032E80004A951F8201009044D4073B10DF582610D
:1032F80051F82330FF213B4493FBF1F1C1EB01214D
:10330800591A04AB53F821301B065D40104B4FEAA5
:103318003561E5500F4B0132E1500F4B4FEA354113
:10332800E1500E4B4FEA3525B2F5807FE5508AD142
:103338000DF6140DBDE8F08F1D461946C1E7194674
:10334800D2E700BF9C16002099050020C416002073
:10335800C4170020C41B0020C41F0020C423002061
:103368009C0600209C0A00209C0E00209C12002035
:103378004FF48C7200210EF043BD18B14FF48C71DC
:1033880005F0CAB870470000C02AF8B505460C46D3
:10339800164658D0B2F5807F57D0802A40F00A816F
:1033A8000A23864F2B603B681BB9FFF7E1FE012318
:1033B8003B602146002205F1080068607609B242A8
:1033C80001F1040143D12B680C2B52D00E2B00F0D5
:1033D80093800A2B35D1002405F11800784E794DD9
:1033E80056F8242050F8041C50F8103C013453407F
:1033F800C1F30722AA5C0A2C83EA02034FEA11628E
:10340800AA5C00F1100083EA0243CAB2AA5C83EA0C
:103418000263C1F30742AA5C83EA022350F81C2C1A
:1034280040F8103C83EA020350F8182C40F80C3C92
:1034380083EA020340F8083C83EA010340F8043CAD
:10344800CED10020F8BD0C23ABE70E23A9E711F875
:10345800023C11F8034C1B0443EA042311F8044C02
:10346800234311F8014C43EA046340F82230013247
:10347800A5E7002405F12000514E524D56F82420AE
:1034880050F8041C50F8183C01345340C1F307228B
:10349800AA5C082C83EA02034FEA1162AA5C00F1D5
:1034A800180083EA0243CAB2AA5C83EA0263C1F342
:1034B8000742AA5C83EA022350F82C2C40F8183CF7
:1034C80083EA020350F8282C40F8143C83EA0203EC
:1034D80050F8242C40F8103C83EA020350F8202CC2
:1034E80040F80C3C83EA020340F8083C83EA0103F5
:1034F80040F8043CC2D1A4E7002405F12800314A71
:103508002F4D55F8243050F8041C50F8206C50F812
:10351800107C7340C1F30726965D013473400E0E8C
:10352800965D072C83EA0643CEB2965D00F1200033
:1035380083EA0663C1F30746965D83EA062350F8DB
:103548003C6C40F8203C83EA060350F8386C40F89D
:103558001C3C83EA060350F8346C40F8183C83EAB4
:10356800060340F8143CDEB2965D86EA07064FEA89
:103578001367D75D86EA0766C3F30727D75DC3F3EA
:103588000743D35C86EA072686EA034350F82C6C87
:1035980040F8103C83EA060350F8286C40F80C3CCD
:1035A80083EA060381EA030140F8083C40F8041C5A
:1035B800A7D146E76FF01F00F8BD00BFC427002061
:1035C8009C160020990500202DE9F04F04460D4671
:1035D8001646C9B002A8FFF7CBFE04F108036360E2
:1035E8003246294602A8FFF7CFFE804600284BD175
:1035F800029903980A0183188258274DA2605A68D5
:10360800DFF89C90E2609A68DFF898A02261D86899
:10361800DFF894B0216004F1180260610139103BB1
:10362800002929DD1E1FA2F1040E03F10C0C56F827
:10363800040FC4B22F5D040E2C5DB4450194174CE1
:1036480054F82770019C59F8244087EA0407C0F30E
:1036580007242C5DC0F307405AF82440285C84EA0C
:1036680007045BF8207084EA07044EF8044FDED1A3
:1036780010320139103BD3E719681160596851605D
:1036880099689160DB68D36002A8FFF776FE404630
:1036980049B0BDE8F08F00BF99050020C41700208D
:1036A800C4230020C41B0020C41F00202DE9F74FAD
:1036B80045684E680C68D1F808C0CF68E9682B687F
:1036C8004F4001685C4049100139019129466B68F7
:1036D80051F8109F7340AE68D648D74DDFF85CE3C9
:1036E8008CEA060C019E8846002E01F120015FFA43
:1036F80084FA4FEA176B00F3D18050F82B6055F825
:103708002A10DFF840E3714081EA0909C3F3072171
:103718005EF82110C94E89EA0109CCF3074156F831
:1037280021104FEA146A89EA0109D9B255F8211023
:1037380050F82AA04FEA136B81EA0A0AD8F8041055
:1037480050F82BB08AEA010ACCF307215EF8211061
:10375800C3F307438AEA010AC7F3074156F8211061
:1037680056F823308AEA010A5FFA8CF155F82110DD
:103778004FEA1C6C81EA0B0BD8F8081050F82C00A3
:103788008BEA0101C7F3072BFFB25EF82BB055F89F
:10379800275081EA0B014540C4F3074BD8F80C00C9
:1037A800C4F307245EF82440684060405840A44BA6
:1037B8005FFA89F456F82BB01E5DD8F8104081EAFC
:1037C8000B016640040E1C5D86EA0466CAF30724F2
:1037D8001C5D86EA0426C1F307441C5D86EA04469C
:1037E8005FFA8AF41D5DD8F814406C404FEA1965F9
:1037F8005D5D84EA0564C1F307255D5D84EA0524FF
:10380800C0F307455D5D84EA0544CDB25F5DD8F835
:103818001850090E7D404FEA1A67DF5DCAF3074A60
:1038280085EA0765C0F30727DF5DC0B285EA07258B
:10383800C9F30747DF5D185C85EA0745D8F81C70AF
:10384800595C7840C9F3072980EA016013F8091028
:1038580013F80A3080EA012080EA03430020310A85
:103868005170310C9170210A5171210C9171290A02
:103878005172290C9172190A16701471360E240EA1
:10388800157213732D0E5173190C1B0ED670D4714B
:10389800D5729173D37303B0BDE8F08F50F82B80C5
:1038A80055F82AA051F8206C8AEA080A8AEA060A1A
:1038B800644EC3F3072856F828805FFA83F98AEA2A
:1038C800080ACCF307485EF8288055F829B08AEA38
:1038D800080A4FEA146850F8288051F81C6C8BEAE3
:1038E800080B8BEA060B574ECCF3072856F82880AE
:1038F8005FFA8CF98BEA080BC7F307485EF8288053
:1039080055F829908BEA080B4FEA136850F828807D
:1039180051F8186C89EA080888EA0608494EC7F37E
:10392800072956F829904FEA1C6C88EA0908C4F35D
:1039380007495EF82990FFB288EA090855F8277008
:1039480050F82C90C4F3072487EA090951F8147C2D
:10395800C3F3074389EA070956F824705FFA8AF423
:1039680089EA07095EF8237055F8244089EA0709AF
:103978004FEA196350F823305FFA8BF75C4051F82F
:10398800103C55F827705C40CBF3072356F82330DA
:103998005FFA88FC5C40C8F307435EF8233055F8AB
:1039A8002CC05C404FEA1A6350F823305F4051F84E
:1039B8000C3C7B40C8F3072756F827704FEA186875
:1039C8007B40C9F307475EF827707B404FEA1B67C7
:1039D80050F82770CBF3074B8CEA070C51F8087C9A
:1039E80050F828808CEA070CC9F3072756F8277087
:1039F8005FFA89F98CEA070CCAF307475EF8277063
:103A0800CAF3072A8CEA070C55F82970D1F80090F8
:103A180087EA080851F8047C88EA070756F82A80DC
:103A2800019E87EA08075EF82B80013E87EA0807AF
:103A3800019657E69C1200209C0600209C0E002050
:103A4800990500209C0A00202DE9F74F4568D1F818
:103A580000C04C688E68CF68E9682B684F400168E1
:103A68008CEA030C49100139019129466B6851F819
:103A7800109F5C40AB68D648D64DDFF85CE37340D6
:103A8800019E8846002E01F120015FFA8CFB4FEA67
:103A9800146A00F3D08050F82A6055F82B10DFF82C
:103AA80040E3714081EA0909C7F307215EF8211054
:103AB800C94E89EA0109C3F3074156F821104FEAB4
:103AC800136A89EA0109E1B255F8211050F82AA0D1
:103AD8004FEA176B81EA0A0AD8F8041050F82BB09D
:103AE8008AEA010ACCF307215EF821108AEA010A62
:103AF800C7F3074156F82110FFB28AEA010AD9B282
:103B080055F8211055F8275081EA0B0BD8F8081002
:103B1800C3F307238BEA0101C4F3072B5EF82BB02C
:103B28005EF8233081EA0B01CCF3074B4FEA1C6C9B
:103B380050F82C00C4F307444540D8F80C0056F858
:103B48002BB06840584056F824305FFA89F4584042
:103B5800A24B81EA0B011E5DD8F8104066404FEA7F
:103B68001A641C5D86EA0466C0F307241C5D86EAB5
:103B78000426C1F307441C5D86EA04465FFA8AF40A
:103B88001D5DD8F814406C400D0E5D5D84EA056437
:103B9800C9F307255D5D84EA0524C0F307455D5D2B
:103BA80084EA0544CDB25F5DD8F81850C1F3072107
:103BB8007D40070EDF5DC0B285EA0765CAF30727B7
:103BC800DF5D185C85EA0725C9F30747DF5D4FEA23
:103BD800196985EA0745D8F81C70595C784013F8CC
:103BE8000970CAF3074A13F80A3080EA076080EAC6
:103BF800012080EA03430020310A5170310C917092
:103C0800210A5171210C9171290A5172290C917262
:103C1800190A16701471360E240E157213732D0EB0
:103C28005173190C1B0ED670D471D5729173D3735E
:103C380003B0BDE8F08F50F82A8055F82B9051F862
:103C4800206C89EA080989EA0609654EC7F307283E
:103C580056F828805FFA84FA89EA0809C3F3074806
:103C68005EF8288055F82AA089EA08094FEA1368FF
:103C780050F8288051F81C6C8AEA080A8AEA060A71
:103C8800574ECCF3072856F828805FFA83FB8AEA58
:103C9800080AC7F307485EF8288055F82BB08AEA67
:103CA800080A4FEA176850F8288051F8186C8BEA10
:103CB800080888EA06084A4EC4F3072B56F82BB0C2
:103CC800FFB288EA0B08CCF3074B4FEA1C6C55F897
:103CD800277050F82CC0C3F3072387EA0C0C51F85F
:103CE800147C56F823308CEA0707C4F307445F4076
:103CF8005EF824304FEA1A645F405FFA89F355F89A
:103D0800233050F824405EF82BB083EA040C51F8B5
:103D1800103C88EA0B088CEA030CC7F3072356F813
:103D280023305FFA8AF48CEA030CC8F307435EF881
:103D3800233055F824408CEA030C4FEA186350F8F6
:103D480023305FFA88FB5C4051F80C3C55F82BB0E7
:103D58005C40C9F3072356F82330C8F307285C40B2
:103D6800C7F307435EF823305C403B0E50F823301E
:103D7800FFB28BEA030B51F8083C55F827708BEA21
:103D88000303CAF3072B56F82BB056F8288083EAAA
:103D98000B03C9F3074B4FEA196950F82990019EA4
:103DA80087EA090951F8047CCAF3074A89EA070730
:103DB80087EA08075EF82BB05EF82A80013E83EA9E
:103DC8000B0387EA08070196D1F8009058E600BF70
:103DD800C4230020C4170020C41F0020C4160020DC
:103DE800C41B002010B4144601291A46214602D1EA
:103DF80010BCFFF75BBC10BCFFF726BE2DE9F04FE7
:103E0800984685B0130781460F4616460E9D0F9CAF
:103E18005CD149B92A460DF1100BB31ADD4227D1FE
:103E2800002005B0BDE8F08F6B1E002EF8D008F119
:103E3800FF30611E03F1100513F8012F10F801EF90
:103E4800AB4282EA0E0201F8012FF5D12346224641
:103E580039464846FFF7C6FF434604F1100254F8B6
:103E6800041B944243F8041BF9D1103E2B46DCE7AF
:103E78001346EE466F4602F1100AF4461868596870
:103E88000833ACE803005345E646F6D12346002143
:103E98004846FFF7A7FF631E08F1FF3104F10F0042
:103EA8005A7811F801EF82EA0E0203F8012F8342D3
:103EB800F6D142463B4603CB5B45106051601F4636
:103EC80002F10802F6D152461034A6E76FF021003D
:103ED800A7E7036830B5CD1A002D02DC6FF05F004C
:103EE80030BD1C7814F0800F0AD15C1C04601B786C
:103EF80013600368C91A13688B42EFD8002030BDDD
:103F080004F07F04013C032C2FD8DFE804F00209F9
:103F1800121E012DE2D05C78023314600360E8E7DA
:103F2800022DDBDD5D789C78033344EA05241460B8
:103F3800F4E7032DD2DD9C785D78240244EA054439
:103F4800DD7804332C431460E8E7042DC6DD9C7843
:103F58005D78240444EA05641D7905332C4313F87D
:103F6800025C44EA05241460D8E76FF0630030BDB2
:103F780070B404680E1B002E07DD26789E4208D117
:103F88000134046070BCFFF7A4BF6FF05F0070BC21
:103F980070476FF06100FAE737B50123154601AAAB
:103FA8000446FFF7E5FF50B9019B012B09D12368AF
:103FB80013F8012B003218BF01222A60236003B0D6
:103FC80030BD6FF06300FAE737B50223154601AA42
:103FD8000446FFF7CDFF68B9019B013B032B14D8BA
:103FE800236893F90030002B0FDB2860019B5A1ED1
:103FF80001920BB903B030BD2368296813F8012B6F
:1040080042EA01222A602360F0E76FF06300F1E7DB
:1040180070B5032304460E461546FFF7A9FFC8B935
:10402800136893B1013B136022681278072A2A713A
:104038000ED8226801322260AA60226813449E4288
:10404800236018BF6FF0650070BD6FF05F0070BD32
:104058006FF0630070BD38B5032304461546FFF7BB
:1040680087FF58B913685A1E012B2A6004D92368A0
:104078005A1C22601B780BB16FF0670038BD2DE920
:10408800F7431446984601AA302305460F46FFF722
:104098006FFF064630B92B68019A13449F421DD022
:1040A8006FF06506304603B0BDE8F0831B784A46DA
:1040B8002360394643462846FFF75AFFC0B92B68A4
:1040C8006268A3602B6813449F422B6008D91021B3
:1040D80001200DF01FFEE060044658B104F1040908
:1040E8002B689F42E2D84FF00003E360DAD0D7E7AD
:1040F8000646D7E76FF06906D4E72DE9F7439046FF
:104108001F4601AA302304468946FFF731FF0546BA
:1041180000BB2668A9EB0609B9F1000F37DD424656
:104128003378204642F8043B019B1E44314606235F
:10413800FFF71EFF054668B92368D8F80420C8F8B9
:10414800083021688B189E42236007D10C2138461D
:1041580004F0E2F9284603B0BDE8F083895C3A46EA
:10416800013342F8041B204623603146FFF7B1FEB5
:1041780005460028EED123687A68BB60236813449B
:104188009E4223600CBF05466FF06505E2E76FF0BD
:104198005F05DFE72DE9F04300273C463D46DDF8A3
:1041A8001CE0DFF8148175452DD24FF0000C5E5DE0
:1041B800202E23D0AEEB0509B9F1010F05D90D2E3C
:1041C80003D15E1976780A2E16D05E5D0A2E13D0BA
:1041D800BCF1000F6CD13D2E02D10137022F67D8F8
:1041E80016F0800F64D118F806607F2E60D03F2E3D
:1041F80001D8002F5CD101340135D4E70135AE4533
:104208000CF1010CD3D11CB914600020BDE8F08377
:10421800062604F0070EE40806FB0EFE74430EF1B2
:10422800070EE41B04EBDE0478B18C420DD800279E
:10423800014603263C46DFF880C0DFF880801D4435
:10424800AB4207D1091A1160DFE714606FF029004B
:10425800BDE8F08313F8019BA9F10A0E5FFA8EFE00
:10426800BEF1160F04D828FA0EFE1EF0010FE7D192
:104278001CF809E00134BEF1400F08BF013E0EF002
:104288003F0E042C4EEA8717DAD17EB13C0C012E82
:104298000C7002D101310024D2E7022E4FEA172414
:1042A8004C7016BF8F7002310331F4E73446C7E70C
:1042B8006FF02B00BDE8F083353A01080900400093
:1042C8000023F0B516461C46844203D102EB840253
:1042D800BBB9F0BDD6F800E0AEEB0305356051F888
:1042E80024700134BD422CBF4FF0000C4FF0010C7C
:1042F800ED1B734594BF63460CF1010346F8045B5C
:10430800E2E71168C81A8B4242F8040B94BF0023F5
:104318000123DDE72DE9F0474FF0000C0D46144668
:104328008646BEF10F0F05F1400504F1400400F286
:1043380087804FEA101EA0EB0E1007284FEA8E1E4A
:1043480001EB0E0502EB0E0466D951F80E60A3FBD3
:1043580006781CEB070C2CBF0121002152F80E60D7
:104368001CEB060642F80E606E6841EB0801A3FBE1
:104378000678CA192CBF012100216668921962606B
:10438800AE6841EB0801A3FB0678C9192CBF0122CE
:104398000022A6688919A160EE6842EB0802A3FB17
:1043A8000678D2192CBF01210021E6689219E26033
:1043B8002E6941EB0801A3FB0678C9192CBF01221D
:1043C80000222669891921616E6942EB0802A3FB64
:1043D8000678D2192CBF0121002166699219626101
:1043E800AE6941EB0801A3FB0678C9192CBF01226D
:1043F8000022A6698919A161EE6942EB0802A3FBB4
:10440800066792192CBF4FF0010C4FF0000CE169C0
:1044180052184CEB070CE261C20851010C44A0EBA6
:10442800C2000D4404EB8000844240F02C810368F4
:1044380063449C4540F8043B00F23A81BDE8F087AC
:1044480055F8406CAEF1100EA3FB069A1CEB090C54
:104458002CBF4FF001084FF0000854F8406C1CEBDB
:10446800060644F8406C55F83C6C48EB0A08A3FB78
:10447800069A18EB09082CBF4FF0010C4FF0000CFE
:1044880054F83C6C18EB060644F83C6C55F8386C4C
:104498004CEB0A07A3FB068917EB08072CBF4FF064
:1044A800010C4FF0000C54F8386CBE1944F8386C05
:1044B80055F8347C4CEB090CA3FB07891CEB080C62
:1044C8002CBF0127002754F8346C1CEB060644F86F
:1044D800346C55F8306C47EB0907A3FB068917EBDA
:1044E80008072CBF4FF0010C4FF0000C54F8306C4B
:1044F800BE1944F8306C55F82C7C4CEB090CA3FB26
:1045080007891CEB080C2CBF0127002754F82C6CDA
:104518001CEB060644F82C6C55F8286C47EB090789
:10452800A3FB068917EB08072CBF4FF0010C4FF0CF
:10453800000C54F8286CBE1944F8286C55F8247CF3
:104548004CEB090CA3FB07891CEB080C2CBF0127BB
:10455800002754F8246C1CEB060644F8246C55F824
:10456800206C47EB0907A3FB068917EB08072CBF4C
:104578004FF0010C4FF0000C54F8206CBE1944F8B1
:10458800206C55F81C7C4CEB090CA3FB07891CEB31
:10459800080C2CBF0127002754F81C6C1CEB0606DE
:1045A80044F81C6C55F8186C47EB0907A3FB0689FF
:1045B80017EB08072CBF4FF0010C4FF0000C54F814
:1045C800186CBE1944F8186C55F8147C4CEB090C9F
:1045D800A3FB07891CEB080C2CBF0127002754F804
:1045E800146C1CEB060644F8146C55F8106C47EB79
:1045F8000907A3FB068917EB08072CBF4FF0010C2E
:104608004FF0000C54F8106CBE1944F8106C55F8B3
:104618000C7C4CEB090CA3FB07891CEB080C2CBF8A
:104628000127002754F80C6C1CEB060644F80C6CA8
:1046380055F8086C47EB0907A3FB068917EB080731
:104648002CBF4FF0010C4FF0000C54F8086CBE1949
:1046580044F8086C55F8046C4CEB090CA3FB06787D
:104668001CEB070C2CBF0126002608EB060754F8A4
:10467800048C0CEB080644F8046CB04594BFBC46A7
:1046880007F1010C4DE655F8046BA3FB06671CEB1C
:10469800060C2CBF01210021266839440CEB0602C8
:1046A80044F8042B964294BF8C4601F1010CBBE6FA
:1046B8004FF0010CBBE601230360002343608360D5
:1046C800704710B5044668B1806830B161688900E8
:1046D80003F022FFA0680DF057FB0123236000239D
:1046E8006360A36010BD42F2107399422DE9F04156
:1046F80004460E4603D96FF00F00BDE8F081456807
:10470800A94217D9042130460DF004FB8046002841
:10471800F1D0A7685FB1AD002A4639460DF04BFBD2
:104728003846294603F0F8FEA0680DF02DFB6660B8
:10473800C4F808800020BDE8F0818842F8B5064634
:104748000F4603D08D681DB9FFF7BBFF0020F8BDE9
:104758004C68013C1CB155F82430002BF9D0726824
:1047680001343B689442336005D921463046FFF74F
:10477800BAFF40B1F8BDB068121B9200002100EBEF
:1047880084000DF03DFBA200B968B0680DF013FB82
:10479800DCE770B50E4601210446FFF7A4FF054685
:1047A80088B9626801469200A0680DF029FBA368E9
:1047B80086EAE672002EA2EBE6721A60B4BF4FF0EA
:1047C800FF3301232360284670BD4368B1EB431FC4
:1047D8003FBF83684A0953F8220001F01F013ABF1E
:1047E800C84000F00100002070470023194670B54A
:1047F8004568A9420ED0826852F82140002224FA66
:1048080002F6F60707D40132202A03F10103F6D194
:104818000131EEE70023184670BD436810B5E3B1D7
:104828005A1E03F18043013B9B0081687AB900203E
:104838004FF0004351F82210194204D101302028CA
:104848004FEA5303F8D1C0EB4210203010BDCC58CA
:10485800043B002CEBD1013AE7E7184610BD08B538
:10486800FFF7DBFF0730C00808BDF8B50F4612F0A8
:10487800030118BF0121436801EB92059D420446DC
:10488800164605D100212046FFF783FF70B1F8BD19
:10489800FFF717FF01232360002329466360A36005
:1048A8002046FFF720FF0028ECD0F8BD0346B919D1
:1048B800B34200D1F8BD11F8012DD4F808E0DD00AD
:1048C80023F0030705F0180502FA05F55EF807203E
:1048D80001332A434EF80720EAE7F8B505466C6825
:1048E8000846A400944210D31346A34214D0AF68DC
:1048F80003F0030123F0030ECE0057F80E10F14029
:1049080011F0FF0F1AD10133EFE7121B8E180021A7
:104918000DF076FA30462246002310449A4201D11F
:104928000020F8BDAF6803F0030123F00306CC00B4
:10493800B9590133E14000F8011DEFE76FF00700B6
:10494800F8BDF8B506460C464D0901F01F07FFF7FC
:1049580064FF73682044B0EB431F03D875B94FBB9D
:104968000020F8BD10F01F0118BF012101EB501104
:104978003046FFF7B8FE0028F0D0F8BD6FF003010D
:104988007368694303F18042013A9200AB420AD846
:10499800002203F18043013B9B00191DDFD0B16861
:1049A800CA50043BF9E7B068013B84186458845046
:1049B800043AEBE70021D6F804E0AB00C7F1200C7D
:1049C8007545CDD2B4680135E05800FA07F20A43BC
:1049D800E25020FA0CF10433F2E74268F0B54C09D2
:1049E800944201F01F0101D805D171B3BDE8F04030
:1049F8000021FFF7CEBE54BB39B1002502F1804338
:104A0800013B9B00C1F1200EA2B90020F0BD8568D2
:104A18001E1955F8266045F823600133151BAB4273
:104A2800F5D30024AB009542E6D286680135F450F0
:104A38000433F8E78768013AFE5826FA01F42C4354
:104A4800FC5006FA0EF5043BDEE7002CDDD000230F
:104A5800E4E7436870B503F18042013A92004BB92C
:104A68004C6804F18042013A920054B9181C18BFEE
:104A7800012070BD8468A458043A002CF0D1013B91
:104A8800EDE78D68AE58043A0EB9013CEDE79C425B
:104A980011D312D803F18042013A92000BB918469B
:104AA80070BD81688C58A9588C4204D8A2F10402C0
:104AB80003D3013BF2E7012070BD4FF0FF3070BD1A
:104AC8002DE9F04F164685B003930E9B81465A6830
:104AD80073688B4601339A4253D30E9B986800281B
:104AE8004FD0920000210DF08BF90E9BD6F804A050
:104AF8009B6800240093DBF804300AF10107534552
:104B080028BF5346009D0193BF005445D9F80800BB
:104B18001BD1009B391F0B443A4619460DF04BF93F
:104B280031464846FFF795FF0028B8BF0E9B204640
:104B3800A7BFD9F80820B1689A68D9F80810FFF714
:104B4800BFFB002005B0BDE8F08FDBF8081050F877
:104B580024802A680B68019803FB0823039A013410
:104B680053432A4602934346FFF7D4FB029B2A4647
:104B7800B1685046FFF7CEFB002345F8048BEB5194
:104B8800C3E76FF00300DDE7436870B503F18042C7
:104B9800013A92003BB94C6804F18042013A920014
:104BA80044B97BB923E08468A458043A002CF2D1B4
:104BB800013BEFE78D68AE58043A0EB9013CEFE7C8
:104BC8009C4202D20268104670BD096801D94A4267
:104BD800F9E70268002A01DD002916DB002901DD5A
:104BE800002A14DB03F18041013989000BB91A4608
:104BF800E9E7846866586C58A642E4D8A1F1040134
:104C080001D25242DFE7013BF0E70122DBE74FF038
:104C1800FF32D8E71FB581EAE173A3EBE1730029FE
:104C28000093B4BF4FF0FF3301230193012301A97F
:104C38000293CDF80CD0FFF7A7FF05B05DF804FB91
:104C480090422DE9F04105460C46174602D08842AD
:104C580030D13C46012367682B6007F18043013B54
:104C68009B007FBB39462846FFF73DFD064630BB13
:104C7800AB68D4F808C01A4604460146B94228D1A0
:104C88008F003B44DCB16A6801F10108914206D308
:104C980041462846FFF727FD58BBAB683B441A68D6
:104CA80041462244944243F8042B94BF0024012433
:104CB8000437E7E7FFF741FD06460028C9D030462C
:104CC800BDE8F081A268D258043B002ACAD1013F4E
:104CD800C7E710685CF821E024182CBF01200020E9
:104CE800744442F8044B0131A64594BF0446441C61
:104CF800C4E70646E3E7F0B50F4685B00646114619
:104D080038461446FFF7A5FE002831DB012301933E
:104D18000023B4420293039306D1214601A8FFF76A
:104D28000CFD0546B8B901ACB7420DD10123606846
:104D3800336000F18043013B9B0090B9B268A168E1
:104D4800FFF7BEFA002506E039463046FFF7F5FCC6
:104D580005460028EAD001A8FFF7B3FC284605B0AD
:104D6800F0BDA268D258043B002AE7D10138E4E735
:104D78006FF00905F2E7F8B50C6813680546634358
:104D88000F46164616D511463846FFF762FE00282C
:104D980006DB324639462846FFF7ADFF40B1F8BD7D
:104DA8003A4631462846FFF7A6FF0028F7D1644265
:104DB8002C60F4E7FFF744FFF0E7F8B50C681368D8
:104DC80005466343002B0F46164616DD1146384646
:104DD800FFF73FFE002806DB324639462846FFF734
:104DE8008AFF40B1F8BD3A4631462846FFF783FFAF
:104DF8000028F7D164422C60F4E7FFF721FFF0E7C1
:104E08001FB582EAE273A3EBE273002A0093B4BFF2
:104E18004FF0FF3301230193012301AA0293CDF838
:104E28000CD0FFF7A8FF05B05DF804FB1FB582EAB8
:104E3800E273A3EBE273002A0093B4BF4FF0FF3391
:104E480001230193012301AA0293CDF80CD0FFF7A7
:104E5800B4FF05B05DF804FB2DE9F04700231546C3
:104E6800012286B0884281460E468DE80C000293E6
:104E780003920493059305D16846FFF75EFC044648
:104E880088BB6E46A94506D1494603A8FFF755FCDD
:104E9800044640BB03ADD6F804A00AF18043013BA9
:104EA8009B00BAF1000F28D16F6807F18043013BDE
:104EB8009B0057BB0AEB07014846FFF714FC044662
:104EC80088B901464846FFF764FC044658B907F11B
:104ED800804808F1FF384FEA8808EFB932682B6834
:104EE8005343C9F8003003A8FFF7EBFB6846FFF708
:104EF800E8FB204606B0BDE8F087B268D258043B0C
:104F0800002AD1D10AF1FF3ACBE7AA68D258043B6C
:104F1800002ACFD1013FCCE7AB68D9F8082053F875
:104F280008304244B1685046FFF7F4F9013FA8F150
:104F38000408D2E71FB50123009201AA0193029346
:104F4800CDF80CD0FFF788FF05B05DF804FB2DE91C
:104F5800F04F9BB001900F461846002190460393EE
:104F6800FFF758FE002800F0A481002401260399C9
:104F780040460B960C940D940E960F94109411962F
:104F880012941394149615941694179618941994C9
:104F9800FFF75FFDA04226DA019B2BB9DFB9002499
:104FA80020461BB0BDE8F08F21460198FFF7F1FBC2
:104FB80004460028F2D00BA8FFF783FB0EA8FFF7E2
:104FC80080FB11A8FFF77DFB14A8FFF77AFB17A851
:104FD800FFF777FBE4E741463846FFF7AEFB0446A8
:104FE8000028E8D1DBE741460BA8FFF7A6FB0446FB
:104FF8000028E0D10EAD03992846FFF79EFB044632
:105008000028D8D1D8F8041011A802310E960B96B2
:10501800FFF769FB04460028CDD1014611A8FFF728
:10502800B8FB04460028C6D1022114A8FFF75BFB91
:1050380004460028BFD1032117A8FFF754FB0446F4
:105048000028B8D12846FFF7E8FB00F01F001F280A
:1050580078D0C0F11F0319460BA80293FFF771FC23
:1050680004460028A7D102992846FFF76AFC04469F
:105078000028A0D10C9EDDF83CA006F1FF390AF10A
:10508800FF33A9EB030B00934FEA4B13194628464D
:105098000693FFF756FC044600288CD14FEA8B0B89
:1050A80029460BA8FFF770FD00284DDA0699284617
:1050B800FFF793FC044600287FF47DAF009B06F1C0
:1050C80080459B000693043B089306F10063013D6D
:1050D800013B06F18046A5EB0A05023EA3EB0A0A4E
:1050E800AD004FEA4A1AB600009B99453BD8019B90
:1050F8005BB111A91846FFF720FB08BB039BD8F842
:1051080000201B685343019A1360002F3FF453AFEC
:1051180002990BA8FFF761FC90B9D8F800300BA9E9
:1051280038460B93FFF709FB0146002840F0BF8083
:105138003846FFF76FFD00287FF43DAF01233B6041
:10514800044638E7029495E7139951F80B20013289
:1051580041F80B200BA92A460846FFF72EFE044605
:1051680000289DD027E706980D99109A331D1258EC
:105178000993CB58139893427AD34FF0FF33435196
:10518800139A535901335351331F9B46139A0021E5
:10519800535914A8013B5351FFF7FBFA0028CFD10C
:1051A8000099169B109A00297FD0089951581960C8
:1051B8000699525814A95A60139B08465A59FFF782
:1051C800B9FE0146002872D117A8FFF7E2FA0028B5
:1051D800B6D1B9F1010F18BF59460D9A199B18BFDE
:1051E80050581860915914A859600999525817A92C
:1051F8009A60FFF7C9FC0028C8DC139B0EA95A590E
:1052080014A8FFF797FE00289AD1514614A8FFF773
:1052180098FB002894D10BA9084614AAFFF7CDFDE6
:105228000146002843D10BA8FFF7F4FC002818DA40
:105238000EA914A8FFF781FA002881D1514614A8B5
:10524800FFF77FFB00287FF47BAF0BA914AA084661
:10525800FFF791FD00287FF473AF139A5359013B70
:10526800535109F1FF39043DAAF1200A043E3BE7F6
:10527800284407908859AAB1059300230493DDE9CF
:1052880004BC4BEA000B58466146FAF7D1FF0023ED
:105298004FF0FF328B4208BF824200D21046079B74
:1052A80018606DE74FF0FF30F9E700997FE70C468B
:1052B80081E66FF00B0473E670B504460D461046A0
:1052C80000211646FFF7A6FC002824DB2A463346B1
:1052D80021460020FFF73BFE054638B1284670BD41
:1052E800324621462046FFF746FD90B90021204668
:1052F800FFF790FC0028F3DB31462046FFF744FC1B
:105308000028EBDB324621462046FFF756FD0028F1
:10531800F2D00546E2E76FF00905DFE72DE9F04F27
:105328000646ADF2546D0F461846002103921D46FD
:10533800FFF770FC002840F32582AB68D3F80080A3
:1053480018F0010F00F01E8200210398FFF762FC9D
:105358000028C0F21782032108F10204640004F057
:105368000804444404FB08F30139C3F1020303FBB6
:1053780004F4F7D101234FF4C06214A808930991EB
:105388000A910B930C910D910E930F9110910CF0C3
:1053980037FD0398FFF741FAB0F5287F80F0E280E7
:1053A800EF2800F2E2804F2800F2E28017288CBF35
:1053B8004FF0030B4FF0010B6B68304603F1010807
:1053C8004146FFF790F90346002840F063814146C3
:1053D80017A8FFF788F90346002840F05B814FEAD9
:1053E80048010BA8FFF77FF90346002840F05281D7
:1053F8003B68049301330AD139460EA8FFF79DF99B
:105408000346002840F0468101230EAF0E93DDF8D5
:1054180078361BB19B68002B40F0AD80012108A8AD
:10542800FFF7B7F90346002840F03481696808A8F7
:105438008901FFF786FA0346002840F02B8108A966
:105448002A460846FFF738FF0346002840F0228125
:10545800DDF878363BB1DDF8782608AB03CB106071
:1054680018685160906029463846FFF78DFB002880
:10547800C0F28A802A46394617A8FFF71DFF03465F
:10548800002840F0078164420DF12C092346CDF82D
:1054980000902A4608A917A8FFF712FB0346002820
:1054A80040F0F88008A93046FFF747F9034600287E
:1054B80040F0F080012707AB1393CDF80090234606
:1054C8002A4611A93046079711971297FFF7F8FA5D
:1054D8000346002840F0DE80BB455AD14FF0000952
:1054E800C846CA464F46039B5B680293BAF1000F51
:1054F80040F0B180029B002B40F0A8804FF0010AD9
:105508000DF12C090AFA0BFA029B434540F013816E
:10551800012307AA07931193129313922346CDF8F8
:1055280000902A4611A93046FFF7CAFA0346002818
:1055380040F0B080049A013240F0AC80039A52687F
:10554800002A00F0A780039A92681268D20740F1F7
:10555800A180049B3246336029463046FFF70BFC96
:10556800034697E04FF0060B26E74FF0050B23E7BD
:105578004FF0040B20E7DDF8782608AB1068516877
:1055880003C3906818606EE7394617A8FFF7D5F887
:1055980075E70BF1FF33029307FA03F30C27059322
:1055A800029B69689F4014AB03EB07080131404632
:1055B800FFF799F8034600286CD117A94046FFF772
:1055C800BCF80346002865D182462346CDF80090F2
:1055D8002A4641464046FFF773FA0346002859D148
:1055E800029B0AF1010A5345EFD84FF00108059BC9
:1055F80008FA0BF803F101090DF5CA631F44A7F275
:10560800F4570DF12C0AC145BFF468AF69683846F4
:105618000131FFF768F8034600283BD1A7F10C01D8
:105628003846FFF78AF80346A0BB23463846CDF82C
:1056380000A02A4617A9FFF743FA0C37034648BBD0
:1056480009F10109DFE74FF002094FE74FF0200A9F
:10565800029B013B0293039B029A9B680AF1FF3A63
:1056680053F8223023FA0AF313F0010336D1B9F1C3
:10567800000F3FF43BAFB9F1010F2FD10BAB0093F3
:105688002A46234631463046FFF71AFA03460028D1
:105698003FF42CAF01220C260BF1FF3402FA04F47C
:1056A80002FA0BF5AC42029364D317A8FFF709F886
:1056B8000BA8FFF706F80EA8FFF703F8DDF8782621
:1056C800029B0AB1926822B908A80293FEF7F9FF73
:1056D800029B18460DF2546DBDE8F08F08F10108E1
:1056E800ABEB08029340C34547EA0307ABD14FF041
:1056F80000080BAB00932A46234631463046FFF795
:10570800DFF903460028C5D108F10108C345F0D8E0
:105718000C210BAB14A8009301FB070123462A4672
:105728003046FFF7CDF903460028B3D14FF0010901
:1057380007468046DAE62346CDF800902A463146E9
:105748003046FFF7BDF903460028A3D17F0017EACA
:105758000A0F03D1029B01330293D5E62346CDF805
:1057680000902A4617A93046FFF7AAF903460028F1
:10577800F0D08FE714AB06FB0430FEF7A2FF01342C
:10578800029B8FE76FF00303A3E7F0B50023012620
:105798008BB0074604A81546019602930393049616
:1057A80005930693079608930993FEF7C6FF0446E8
:1057B800002857D1294607A8FEF7BFFF044600284E
:1057C80050D104A8FFF711F8054607A8FFF70DF810
:1057D800854228BF054604A82946FFF7FEF8044677
:1057E80000283FD1294607A8FFF7F7F80446002804
:1057F80038D107960496002104A8FFF70BFA58B988
:10580800294607A8FFF79DF8044658BB07A938465C
:10581800FEF793FF044625E004A8FEF7E6FF0146DD
:1058280004A8FFF7DAF80446E0B907A8FEF7DDFF99
:10583800014607A8FFF7D1F8044698B907A904A8B4
:10584800FFF7A2F9002819DB04A907AA0846FFF701
:1058580052FA044630B9012104A8FFF7BEF80446FD
:105868000028C8D001A8FEF72CFF04A8FEF729FFDE
:1058780007A8FEF726FF20460BB0F0BD07A904AA2B
:105888000846FFF738FA04460028EBD1012107A89B
:10589800E3E770B5B1F5807FC0B006460D46144603
:1058A80013D80A4618466946A047044628B92A4626
:1058B80069463046FEF7D9FF04464FF480716846C2
:1058C80002F02AFE204640B070BD6FF00304F9E7ED
:1058D8002DE9F04180469CB00F461046012116463E
:1058E800FFF798F9002840F3438100230125324649
:1058F800394601A8049505930693079508930993DB
:105908000A950B930C930D950E930F9301950293A3
:105918000393109511931293139514931593169559
:105928001793189319951A931B93FFF72EFF0446A4
:10593800002854D1294601A8FFF76CF9002840F047
:1059480014813246394604A8FFF7B6FC04460028FD
:1059580045D104A907A8FEF7F0FE044600283ED169
:10596800314610A8FEF7E9FE0446002837D1314633
:1059780013A8FEF7E2FE0446002830D129460AA8FB
:10598800FEF707FF044650BB01460DA8FEF701FFCE
:10599800044620BB014616A8FEF7FBFE0446F0B9F4
:1059A800294619A8FEF7F5FE0446C0B9099B1B68ED
:1059B800D80766D4012107A8FFF70FF8044670B985
:1059C8000C9B1B68DD0729D40F9B1B68DC0725D4BB
:1059D80001210AA8FFF701F8044600282FD004A8DF
:1059E800FEF76FFE07A8FEF76CFE0AA8FEF769FE31
:1059F8000DA8FEF766FE01A8FEF763FE10A8FEF7E5
:105A080060FE13A8FEF75DFE16A8FEF75AFE19A859
:105A1800FEF757FE20461CB0BDE8F0810AA910AA7F
:105A28000846FFF7A8F904460028D8D10DA904AA0A
:105A38000846FFF7C2F904460028C9D0CFE701217C
:105A48000DA8FEF7CAFFAFE7012113A8FEF7C5FFAF
:105A580004460028C3D1189B1B68D9074CD41B9B4C
:105A68001B68DA0748D4012116A8FEF7B6FF0446DA
:105A78000028B4D1012119A8FEF7AFFF0446002879
:105A8800ADD1159B1B68DB07DED513A907A8FFF767
:105A98007BF8002842DB07A913AA0846FFF78DF90F
:105AA800044600289BD10AA916AA0846FFF785F9DB
:105AB8000446002893D119AA0DA90846FFF77DF9D5
:105AC800044600288BD1002107A8FFF7A3F8002877
